{
  "_format": "hh-sol-artifact-1",
  "contractName": "PlatziPunks",
  "sourceName": "contracts/PlatziPunks.sol",
  "abi": [
    {
      "inputs": [
        {
          "internalType": "uint256",
          "name": "_maxSupply",
          "type": "uint256"
        }
      ],
      "stateMutability": "nonpayable",
      "type": "constructor"
    },
    {
      "anonymous": false,
      "inputs": [
        {
          "indexed": true,
          "internalType": "address",
          "name": "owner",
          "type": "address"
        },
        {
          "indexed": true,
          "internalType": "address",
          "name": "approved",
          "type": "address"
        },
        {
          "indexed": true,
          "internalType": "uint256",
          "name": "tokenId",
          "type": "uint256"
        }
      ],
      "name": "Approval",
      "type": "event"
    },
    {
      "anonymous": false,
      "inputs": [
        {
          "indexed": true,
          "internalType": "address",
          "name": "owner",
          "type": "address"
        },
        {
          "indexed": true,
          "internalType": "address",
          "name": "operator",
          "type": "address"
        },
        {
          "indexed": false,
          "internalType": "bool",
          "name": "approved",
          "type": "bool"
        }
      ],
      "name": "ApprovalForAll",
      "type": "event"
    },
    {
      "anonymous": false,
      "inputs": [
        {
          "indexed": true,
          "internalType": "address",
          "name": "from",
          "type": "address"
        },
        {
          "indexed": true,
          "internalType": "address",
          "name": "to",
          "type": "address"
        },
        {
          "indexed": true,
          "internalType": "uint256",
          "name": "tokenId",
          "type": "uint256"
        }
      ],
      "name": "Transfer",
      "type": "event"
    },
    {
      "inputs": [
        {
          "internalType": "address",
          "name": "to",
          "type": "address"
        },
        {
          "internalType": "uint256",
          "name": "tokenId",
          "type": "uint256"
        }
      ],
      "name": "approve",
      "outputs": [],
      "stateMutability": "nonpayable",
      "type": "function"
    },
    {
      "inputs": [
        {
          "internalType": "address",
          "name": "owner",
          "type": "address"
        }
      ],
      "name": "balanceOf",
      "outputs": [
        {
          "internalType": "uint256",
          "name": "",
          "type": "uint256"
        }
      ],
      "stateMutability": "view",
      "type": "function"
    },
    {
      "inputs": [
        {
          "internalType": "uint256",
          "name": "_tokenId",
          "type": "uint256"
        },
        {
          "internalType": "address",
          "name": "_minter",
          "type": "address"
        }
      ],
      "name": "deterministicPseudoRandomDNA",
      "outputs": [
        {
          "internalType": "uint256",
          "name": "",
          "type": "uint256"
        }
      ],
      "stateMutability": "pure",
      "type": "function"
    },
    {
      "inputs": [
        {
          "internalType": "uint256",
          "name": "_dna",
          "type": "uint256"
        }
      ],
      "name": "getAccessoriesType",
      "outputs": [
        {
          "internalType": "string",
          "name": "",
          "type": "string"
        }
      ],
      "stateMutability": "view",
      "type": "function"
    },
    {
      "inputs": [
        {
          "internalType": "uint256",
          "name": "tokenId",
          "type": "uint256"
        }
      ],
      "name": "getApproved",
      "outputs": [
        {
          "internalType": "address",
          "name": "",
          "type": "address"
        }
      ],
      "stateMutability": "view",
      "type": "function"
    },
    {
      "inputs": [
        {
          "internalType": "uint256",
          "name": "_dna",
          "type": "uint256"
        }
      ],
      "name": "getClotheColor",
      "outputs": [
        {
          "internalType": "string",
          "name": "",
          "type": "string"
        }
      ],
      "stateMutability": "view",
      "type": "function"
    },
    {
      "inputs": [
        {
          "internalType": "uint256",
          "name": "_dna",
          "type": "uint256"
        }
      ],
      "name": "getClotheType",
      "outputs": [
        {
          "internalType": "string",
          "name": "",
          "type": "string"
        }
      ],
      "stateMutability": "view",
      "type": "function"
    },
    {
      "inputs": [
        {
          "internalType": "uint256",
          "name": "_dna",
          "type": "uint256"
        }
      ],
      "name": "getEyeBrowType",
      "outputs": [
        {
          "internalType": "string",
          "name": "",
          "type": "string"
        }
      ],
      "stateMutability": "view",
      "type": "function"
    },
    {
      "inputs": [
        {
          "internalType": "uint256",
          "name": "_dna",
          "type": "uint256"
        }
      ],
      "name": "getEyeType",
      "outputs": [
        {
          "internalType": "string",
          "name": "",
          "type": "string"
        }
      ],
      "stateMutability": "view",
      "type": "function"
    },
    {
      "inputs": [
        {
          "internalType": "uint256",
          "name": "_dna",
          "type": "uint256"
        }
      ],
      "name": "getFacialHairColor",
      "outputs": [
        {
          "internalType": "string",
          "name": "",
          "type": "string"
        }
      ],
      "stateMutability": "view",
      "type": "function"
    },
    {
      "inputs": [
        {
          "internalType": "uint256",
          "name": "_dna",
          "type": "uint256"
        }
      ],
      "name": "getFacialHairType",
      "outputs": [
        {
          "internalType": "string",
          "name": "",
          "type": "string"
        }
      ],
      "stateMutability": "view",
      "type": "function"
    },
    {
      "inputs": [
        {
          "internalType": "uint256",
          "name": "_dna",
          "type": "uint256"
        }
      ],
      "name": "getGraphicType",
      "outputs": [
        {
          "internalType": "string",
          "name": "",
          "type": "string"
        }
      ],
      "stateMutability": "view",
      "type": "function"
    },
    {
      "inputs": [
        {
          "internalType": "uint256",
          "name": "_dna",
          "type": "uint256"
        }
      ],
      "name": "getHairColor",
      "outputs": [
        {
          "internalType": "string",
          "name": "",
          "type": "string"
        }
      ],
      "stateMutability": "view",
      "type": "function"
    },
    {
      "inputs": [
        {
          "internalType": "uint256",
          "name": "_dna",
          "type": "uint256"
        }
      ],
      "name": "getHatColor",
      "outputs": [
        {
          "internalType": "string",
          "name": "",
          "type": "string"
        }
      ],
      "stateMutability": "view",
      "type": "function"
    },
    {
      "inputs": [
        {
          "internalType": "uint256",
          "name": "_dna",
          "type": "uint256"
        }
      ],
      "name": "getMouthType",
      "outputs": [
        {
          "internalType": "string",
          "name": "",
          "type": "string"
        }
      ],
      "stateMutability": "view",
      "type": "function"
    },
    {
      "inputs": [
        {
          "internalType": "uint256",
          "name": "_dna",
          "type": "uint256"
        }
      ],
      "name": "getSkinColor",
      "outputs": [
        {
          "internalType": "string",
          "name": "",
          "type": "string"
        }
      ],
      "stateMutability": "view",
      "type": "function"
    },
    {
      "inputs": [
        {
          "internalType": "uint256",
          "name": "_dna",
          "type": "uint256"
        }
      ],
      "name": "getTopType",
      "outputs": [
        {
          "internalType": "string",
          "name": "",
          "type": "string"
        }
      ],
      "stateMutability": "view",
      "type": "function"
    },
    {
      "inputs": [
        {
          "internalType": "uint256",
          "name": "_dna",
          "type": "uint256"
        }
      ],
      "name": "imageByDna",
      "outputs": [
        {
          "internalType": "string",
          "name": "",
          "type": "string"
        }
      ],
      "stateMutability": "view",
      "type": "function"
    },
    {
      "inputs": [
        {
          "internalType": "address",
          "name": "owner",
          "type": "address"
        },
        {
          "internalType": "address",
          "name": "operator",
          "type": "address"
        }
      ],
      "name": "isApprovedForAll",
      "outputs": [
        {
          "internalType": "bool",
          "name": "",
          "type": "bool"
        }
      ],
      "stateMutability": "view",
      "type": "function"
    },
    {
      "inputs": [],
      "name": "maxSupply",
      "outputs": [
        {
          "internalType": "uint256",
          "name": "",
          "type": "uint256"
        }
      ],
      "stateMutability": "view",
      "type": "function"
    },
    {
      "inputs": [],
      "name": "mint",
      "outputs": [],
      "stateMutability": "nonpayable",
      "type": "function"
    },
    {
      "inputs": [],
      "name": "name",
      "outputs": [
        {
          "internalType": "string",
          "name": "",
          "type": "string"
        }
      ],
      "stateMutability": "view",
      "type": "function"
    },
    {
      "inputs": [
        {
          "internalType": "uint256",
          "name": "tokenId",
          "type": "uint256"
        }
      ],
      "name": "ownerOf",
      "outputs": [
        {
          "internalType": "address",
          "name": "",
          "type": "address"
        }
      ],
      "stateMutability": "view",
      "type": "function"
    },
    {
      "inputs": [
        {
          "internalType": "address",
          "name": "from",
          "type": "address"
        },
        {
          "internalType": "address",
          "name": "to",
          "type": "address"
        },
        {
          "internalType": "uint256",
          "name": "tokenId",
          "type": "uint256"
        }
      ],
      "name": "safeTransferFrom",
      "outputs": [],
      "stateMutability": "nonpayable",
      "type": "function"
    },
    {
      "inputs": [
        {
          "internalType": "address",
          "name": "from",
          "type": "address"
        },
        {
          "internalType": "address",
          "name": "to",
          "type": "address"
        },
        {
          "internalType": "uint256",
          "name": "tokenId",
          "type": "uint256"
        },
        {
          "internalType": "bytes",
          "name": "data",
          "type": "bytes"
        }
      ],
      "name": "safeTransferFrom",
      "outputs": [],
      "stateMutability": "nonpayable",
      "type": "function"
    },
    {
      "inputs": [
        {
          "internalType": "address",
          "name": "operator",
          "type": "address"
        },
        {
          "internalType": "bool",
          "name": "approved",
          "type": "bool"
        }
      ],
      "name": "setApprovalForAll",
      "outputs": [],
      "stateMutability": "nonpayable",
      "type": "function"
    },
    {
      "inputs": [
        {
          "internalType": "bytes4",
          "name": "interfaceId",
          "type": "bytes4"
        }
      ],
      "name": "supportsInterface",
      "outputs": [
        {
          "internalType": "bool",
          "name": "",
          "type": "bool"
        }
      ],
      "stateMutability": "view",
      "type": "function"
    },
    {
      "inputs": [],
      "name": "symbol",
      "outputs": [
        {
          "internalType": "string",
          "name": "",
          "type": "string"
        }
      ],
      "stateMutability": "view",
      "type": "function"
    },
    {
      "inputs": [
        {
          "internalType": "uint256",
          "name": "index",
          "type": "uint256"
        }
      ],
      "name": "tokenByIndex",
      "outputs": [
        {
          "internalType": "uint256",
          "name": "",
          "type": "uint256"
        }
      ],
      "stateMutability": "view",
      "type": "function"
    },
    {
      "inputs": [
        {
          "internalType": "uint256",
          "name": "",
          "type": "uint256"
        }
      ],
      "name": "tokenDNA",
      "outputs": [
        {
          "internalType": "uint256",
          "name": "",
          "type": "uint256"
        }
      ],
      "stateMutability": "view",
      "type": "function"
    },
    {
      "inputs": [
        {
          "internalType": "address",
          "name": "owner",
          "type": "address"
        },
        {
          "internalType": "uint256",
          "name": "index",
          "type": "uint256"
        }
      ],
      "name": "tokenOfOwnerByIndex",
      "outputs": [
        {
          "internalType": "uint256",
          "name": "",
          "type": "uint256"
        }
      ],
      "stateMutability": "view",
      "type": "function"
    },
    {
      "inputs": [
        {
          "internalType": "uint256",
          "name": "tokenId",
          "type": "uint256"
        }
      ],
      "name": "tokenURI",
      "outputs": [
        {
          "internalType": "string",
          "name": "",
          "type": "string"
        }
      ],
      "stateMutability": "view",
      "type": "function"
    },
    {
      "inputs": [],
      "name": "totalSupply",
      "outputs": [
        {
          "internalType": "uint256",
          "name": "",
          "type": "uint256"
        }
      ],
      "stateMutability": "view",
      "type": "function"
    },
    {
      "inputs": [
        {
          "internalType": "address",
          "name": "from",
          "type": "address"
        },
        {
          "internalType": "address",
          "name": "to",
          "type": "address"
        },
        {
          "internalType": "uint256",
          "name": "tokenId",
          "type": "uint256"
        }
      ],
      "name": "transferFrom",
      "outputs": [],
      "stateMutability": "nonpayable",
      "type": "function"
    }
  ],
  "bytecode": "0x60806040526040518060e001604052806040518060400160405280600581526020017f426c616e6b00000000000000000000000000000000000000000000000000000081525081526020016040518060400160405280600481526020017f4b7572740000000000000000000000000000000000000000000000000000000081525081526020016040518060400160405280600e81526020017f507265736372697074696f6e303100000000000000000000000000000000000081525081526020016040518060400160405280600e81526020017f507265736372697074696f6e303200000000000000000000000000000000000081525081526020016040518060400160405280600581526020017f526f756e6400000000000000000000000000000000000000000000000000000081525081526020016040518060400160405280600a81526020017f53756e676c61737365730000000000000000000000000000000000000000000081525081526020016040518060400160405280600981526020017f5761796661726572730000000000000000000000000000000000000000000000815250815250600a906007620001bc92919062002700565b50604051806101e001604052806040518060400160405280600581526020017f426c61636b00000000000000000000000000000000000000000000000000000081525081526020016040518060400160405280600681526020017f426c75653031000000000000000000000000000000000000000000000000000081525081526020016040518060400160405280600681526020017f426c75653032000000000000000000000000000000000000000000000000000081525081526020016040518060400160405280600681526020017f426c75653033000000000000000000000000000000000000000000000000000081525081526020016040518060400160405280600681526020017f477261793031000000000000000000000000000000000000000000000000000081525081526020016040518060400160405280600681526020017f477261793032000000000000000000000000000000000000000000000000000081525081526020016040518060400160405280600781526020017f486561746865720000000000000000000000000000000000000000000000000081525081526020016040518060400160405280600a81526020017f50617374656c426c75650000000000000000000000000000000000000000000081525081526020016040518060400160405280600b81526020017f50617374656c477265656e00000000000000000000000000000000000000000081525081526020016040518060400160405280600c81526020017f50617374656c4f72616e6765000000000000000000000000000000000000000081525081526020016040518060400160405280600981526020017f50617374656c526564000000000000000000000000000000000000000000000081525081526020016040518060400160405280600c81526020017f50617374656c59656c6c6f77000000000000000000000000000000000000000081525081526020016040518060400160405280600481526020017f50696e6b0000000000000000000000000000000000000000000000000000000081525081526020016040518060400160405280600381526020017f526564000000000000000000000000000000000000000000000000000000000081525081526020016040518060400160405280600581526020017f5768697465000000000000000000000000000000000000000000000000000000815250815250600b90600f6200054e92919062002767565b506040518061012001604052806040518060400160405280600b81526020017f426c617a6572536869727400000000000000000000000000000000000000000081525081526020016040518060400160405280600d81526020017f426c617a6572537765617465720000000000000000000000000000000000000081525081526020016040518060400160405280600d81526020017f436f6c6c6172537765617465720000000000000000000000000000000000000081525081526020016040518060400160405280600c81526020017f477261706869635368697274000000000000000000000000000000000000000081525081526020016040518060400160405280600681526020017f486f6f646965000000000000000000000000000000000000000000000000000081525081526020016040518060400160405280600781526020017f4f766572616c6c0000000000000000000000000000000000000000000000000081525081526020016040518060400160405280600d81526020017f5368697274437265774e65636b0000000000000000000000000000000000000081525081526020016040518060400160405280600e81526020017f536869727453636f6f704e65636b00000000000000000000000000000000000081525081526020016040518060400160405280600a81526020017f5368697274564e65636b00000000000000000000000000000000000000000000815250815250600c9060096200077e929190620027ce565b506040518061018001604052806040518060400160405280600581526020017f436c6f736500000000000000000000000000000000000000000000000000000081525081526020016040518060400160405280600381526020017f437279000000000000000000000000000000000000000000000000000000000081525081526020016040518060400160405280600781526020017f44656661756c740000000000000000000000000000000000000000000000000081525081526020016040518060400160405280600581526020017f44697a7a7900000000000000000000000000000000000000000000000000000081525081526020016040518060400160405280600781526020017f457965526f6c6c0000000000000000000000000000000000000000000000000081525081526020016040518060400160405280600581526020017f486170707900000000000000000000000000000000000000000000000000000081525081526020016040518060400160405280600681526020017f486561727473000000000000000000000000000000000000000000000000000081525081526020016040518060400160405280600481526020017f536964650000000000000000000000000000000000000000000000000000000081525081526020016040518060400160405280600681526020017f537175696e74000000000000000000000000000000000000000000000000000081525081526020016040518060400160405280600981526020017f537572707269736564000000000000000000000000000000000000000000000081525081526020016040518060400160405280600481526020017f57696e6b0000000000000000000000000000000000000000000000000000000081525081526020016040518060400160405280600981526020017f57696e6b5761636b790000000000000000000000000000000000000000000000815250815250600d90600c62000a5f92919062002835565b506040518061018001604052806040518060400160405280600581526020017f416e67727900000000000000000000000000000000000000000000000000000081525081526020016040518060400160405280600c81526020017f416e6772794e61747572616c000000000000000000000000000000000000000081525081526020016040518060400160405280600781526020017f44656661756c740000000000000000000000000000000000000000000000000081525081526020016040518060400160405280600e81526020017f44656661756c744e61747572616c00000000000000000000000000000000000081525081526020016040518060400160405280600b81526020017f466c61744e61747572616c00000000000000000000000000000000000000000081525081526020016040518060400160405280600d81526020017f526169736564457863697465640000000000000000000000000000000000000081525081526020016040518060400160405280601481526020017f526169736564457863697465644e61747572616c00000000000000000000000081525081526020016040518060400160405280600c81526020017f536164436f6e6365726e6564000000000000000000000000000000000000000081525081526020016040518060400160405280601381526020017f536164436f6e6365726e65644e61747572616c0000000000000000000000000081525081526020016040518060400160405280600e81526020017f556e6962726f774e61747572616c00000000000000000000000000000000000081525081526020016040518060400160405280600681526020017f5570446f776e000000000000000000000000000000000000000000000000000081525081526020016040518060400160405280600d81526020017f5570446f776e4e61747572616c00000000000000000000000000000000000000815250815250600e90600c62000d4092919062002835565b506040518061010001604052806040518060400160405280600681526020017f41756275726e000000000000000000000000000000000000000000000000000081525081526020016040518060400160405280600581526020017f426c61636b00000000000000000000000000000000000000000000000000000081525081526020016040518060400160405280600681526020017f426c6f6e6465000000000000000000000000000000000000000000000000000081525081526020016040518060400160405280600c81526020017f426c6f6e6465476f6c64656e000000000000000000000000000000000000000081525081526020016040518060400160405280600581526020017f42726f776e00000000000000000000000000000000000000000000000000000081525081526020016040518060400160405280600981526020017f42726f776e4461726b000000000000000000000000000000000000000000000081525081526020016040518060400160405280600881526020017f506c6174696e756d00000000000000000000000000000000000000000000000081525081526020016040518060400160405280600381526020017f5265640000000000000000000000000000000000000000000000000000000000815250815250600f90600862000f359291906200289c565b506040518060c001604052806040518060400160405280600581526020017f426c616e6b00000000000000000000000000000000000000000000000000000081525081526020016040518060400160405280600b81526020017f42656172644d656469756d00000000000000000000000000000000000000000081525081526020016040518060400160405280600a81526020017f42656172644c696768740000000000000000000000000000000000000000000081525081526020016040518060400160405280600d81526020017f42656172644d616765737469630000000000000000000000000000000000000081525081526020016040518060400160405280600e81526020017f4d6f7573746163686546616e637900000000000000000000000000000000000081525081526020016040518060400160405280600f81526020017f4d6f757374616368654d61676e756d00000000000000000000000000000000008152508152506010906006620010b392919062002903565b506040518061014001604052806040518060400160405280600681526020017f41756275726e000000000000000000000000000000000000000000000000000081525081526020016040518060400160405280600581526020017f426c61636b00000000000000000000000000000000000000000000000000000081525081526020016040518060400160405280600681526020017f426c6f6e6465000000000000000000000000000000000000000000000000000081525081526020016040518060400160405280600c81526020017f426c6f6e6465476f6c64656e000000000000000000000000000000000000000081525081526020016040518060400160405280600581526020017f42726f776e00000000000000000000000000000000000000000000000000000081525081526020016040518060400160405280600981526020017f42726f776e4461726b000000000000000000000000000000000000000000000081525081526020016040518060400160405280600a81526020017f50617374656c50696e6b0000000000000000000000000000000000000000000081525081526020016040518060400160405280600881526020017f506c6174696e756d00000000000000000000000000000000000000000000000081525081526020016040518060400160405280600381526020017f526564000000000000000000000000000000000000000000000000000000000081525081526020016040518060400160405280600a81526020017f53696c7665724772617900000000000000000000000000000000000000000000815250815250601190600a6200131e9291906200296a565b50604051806101e001604052806040518060400160405280600581526020017f426c61636b00000000000000000000000000000000000000000000000000000081525081526020016040518060400160405280600681526020017f426c75653031000000000000000000000000000000000000000000000000000081525081526020016040518060400160405280600681526020017f426c75653032000000000000000000000000000000000000000000000000000081525081526020016040518060400160405280600681526020017f426c75653033000000000000000000000000000000000000000000000000000081525081526020016040518060400160405280600681526020017f477261793031000000000000000000000000000000000000000000000000000081525081526020016040518060400160405280600681526020017f477261793032000000000000000000000000000000000000000000000000000081525081526020016040518060400160405280600781526020017f486561746865720000000000000000000000000000000000000000000000000081525081526020016040518060400160405280600a81526020017f50617374656c426c75650000000000000000000000000000000000000000000081525081526020016040518060400160405280600b81526020017f50617374656c477265656e00000000000000000000000000000000000000000081525081526020016040518060400160405280600c81526020017f50617374656c4f72616e6765000000000000000000000000000000000000000081525081526020016040518060400160405280600981526020017f50617374656c526564000000000000000000000000000000000000000000000081525081526020016040518060400160405280600c81526020017f50617374656c59656c6c6f77000000000000000000000000000000000000000081525081526020016040518060400160405280600481526020017f50696e6b0000000000000000000000000000000000000000000000000000000081525081526020016040518060400160405280600381526020017f526564000000000000000000000000000000000000000000000000000000000081525081526020016040518060400160405280600581526020017f5768697465000000000000000000000000000000000000000000000000000000815250815250601290600f620016b092919062002767565b506040518061016001604052806040518060400160405280600381526020017f426174000000000000000000000000000000000000000000000000000000000081525081526020016040518060400160405280600681526020017f43756d626961000000000000000000000000000000000000000000000000000081525081526020016040518060400160405280600481526020017f446565720000000000000000000000000000000000000000000000000000000081525081526020016040518060400160405280600781526020017f4469616d6f6e640000000000000000000000000000000000000000000000000081525081526020016040518060400160405280600481526020017f486f6c610000000000000000000000000000000000000000000000000000000081525081526020016040518060400160405280600581526020017f50697a7a6100000000000000000000000000000000000000000000000000000081525081526020016040518060400160405280600681526020017f526573697374000000000000000000000000000000000000000000000000000081525081526020016040518060400160405280600681526020017f53656c656e61000000000000000000000000000000000000000000000000000081525081526020016040518060400160405280600481526020017f426561720000000000000000000000000000000000000000000000000000000081525081526020016040518060400160405280600c81526020017f536b756c6c4f75746c696e65000000000000000000000000000000000000000081525081526020016040518060400160405280600581526020017f536b756c6c000000000000000000000000000000000000000000000000000000815250815250601390600b62001956929190620029d1565b506040518061018001604052806040518060400160405280600981526020017f436f6e6365726e6564000000000000000000000000000000000000000000000081525081526020016040518060400160405280600781526020017f44656661756c740000000000000000000000000000000000000000000000000081525081526020016040518060400160405280600981526020017f44697362656c696566000000000000000000000000000000000000000000000081525081526020016040518060400160405280600681526020017f456174696e67000000000000000000000000000000000000000000000000000081525081526020016040518060400160405280600781526020017f4772696d6163650000000000000000000000000000000000000000000000000081525081526020016040518060400160405280600381526020017f536164000000000000000000000000000000000000000000000000000000000081525081526020016040518060400160405280600a81526020017f53637265616d4f70656e0000000000000000000000000000000000000000000081525081526020016040518060400160405280600781526020017f536572696f75730000000000000000000000000000000000000000000000000081525081526020016040518060400160405280600581526020017f536d696c6500000000000000000000000000000000000000000000000000000081525081526020016040518060400160405280600681526020017f546f6e677565000000000000000000000000000000000000000000000000000081525081526020016040518060400160405280600781526020017f5477696e6b6c650000000000000000000000000000000000000000000000000081525081526020016040518060400160405280600581526020017f566f6d6974000000000000000000000000000000000000000000000000000000815250815250601490600c62001c3792919062002835565b506040518060e001604052806040518060400160405280600681526020017f54616e6e6564000000000000000000000000000000000000000000000000000081525081526020016040518060400160405280600681526020017f59656c6c6f77000000000000000000000000000000000000000000000000000081525081526020016040518060400160405280600481526020017f50616c650000000000000000000000000000000000000000000000000000000081525081526020016040518060400160405280600581526020017f4c6967687400000000000000000000000000000000000000000000000000000081525081526020016040518060400160405280600581526020017f42726f776e00000000000000000000000000000000000000000000000000000081525081526020016040518060400160405280600981526020017f4461726b42726f776e000000000000000000000000000000000000000000000081525081526020016040518060400160405280600581526020017f426c61636b000000000000000000000000000000000000000000000000000000815250815250601590600762001df092919062002700565b506040518061046001604052806040518060400160405280600681526020017f4e6f48616972000000000000000000000000000000000000000000000000000081525081526020016040518060400160405280600881526020017f457965706174636800000000000000000000000000000000000000000000000081525081526020016040518060400160405280600381526020017f486174000000000000000000000000000000000000000000000000000000000081525081526020016040518060400160405280600581526020017f48696a616200000000000000000000000000000000000000000000000000000081525081526020016040518060400160405280600681526020017f54757262616e000000000000000000000000000000000000000000000000000081525081526020016040518060400160405280600a81526020017f57696e746572486174310000000000000000000000000000000000000000000081525081526020016040518060400160405280600a81526020017f57696e746572486174320000000000000000000000000000000000000000000081525081526020016040518060400160405280600a81526020017f57696e746572486174330000000000000000000000000000000000000000000081525081526020016040518060400160405280600a81526020017f57696e746572486174340000000000000000000000000000000000000000000081525081526020016040518060400160405280600f81526020017f4c6f6e674861697242696748616972000000000000000000000000000000000081525081526020016040518060400160405280600b81526020017f4c6f6e6748616972426f6200000000000000000000000000000000000000000081525081526020016040518060400160405280600b81526020017f4c6f6e674861697242756e00000000000000000000000000000000000000000081525081526020016040518060400160405280600d81526020017f4c6f6e67486169724375726c790000000000000000000000000000000000000081525081526020016040518060400160405280600d81526020017f4c6f6e674861697243757276790000000000000000000000000000000000000081525081526020016040518060400160405280600e81526020017f4c6f6e674861697244726561647300000000000000000000000000000000000081525081526020016040518060400160405280600d81526020017f4c6f6e674861697246726964610000000000000000000000000000000000000081525081526020016040518060400160405280600b81526020017f4c6f6e674861697246726f00000000000000000000000000000000000000000081525081526020016040518060400160405280600f81526020017f4c6f6e674861697246726f42616e64000000000000000000000000000000000081525081526020016040518060400160405280601281526020017f4c6f6e67486169724e6f74546f6f4c6f6e67000000000000000000000000000081525081526020016040518060400160405280601381526020017f4c6f6e674861697253686176656453696465730000000000000000000000000081525081526020016040518060400160405280601281526020017f4c6f6e67486169724d696157616c6c616365000000000000000000000000000081525081526020016040518060400160405280601081526020017f4c6f6e674861697253747261696768740000000000000000000000000000000081525081526020016040518060400160405280601181526020017f4c6f6e674861697253747261696768743200000000000000000000000000000081525081526020016040518060400160405280601681526020017f4c6f6e67486169725374726169676874537472616e640000000000000000000081525081526020016040518060400160405280601181526020017f53686f727448616972447265616473303100000000000000000000000000000081525081526020016040518060400160405280601181526020017f53686f727448616972447265616473303200000000000000000000000000000081525081526020016040518060400160405280601081526020017f53686f7274486169724672697a7a6c650000000000000000000000000000000081525081526020016040518060400160405280601581526020017f53686f7274486169725368616767794d756c6c6574000000000000000000000081525081526020016040518060400160405280601381526020017f53686f72744861697253686f72744375726c790000000000000000000000000081525081526020016040518060400160405280601281526020017f53686f72744861697253686f7274466c6174000000000000000000000000000081525081526020016040518060400160405280601381526020017f53686f72744861697253686f7274526f756e640000000000000000000000000081525081526020016040518060400160405280601381526020017f53686f72744861697253686f727457617665640000000000000000000000000081525081526020016040518060400160405280600e81526020017f53686f727448616972536964657300000000000000000000000000000000000081525081526020016040518060400160405280601281526020017f53686f727448616972546865436165736172000000000000000000000000000081525081526020016040518060400160405280601a81526020017f53686f727448616972546865436165736172536964655061727400000000000081525081525060169060236200261e92919062002a38565b503480156200262c57600080fd5b5060405162007a5d38038062007a5d833981810160405281019062002652919062002bd4565b6040518060400160405280600a81526020017f506c61747a6950756e6b000000000000000000000000000000000000000000008152506040518060400160405280600581526020017f504c504b530000000000000000000000000000000000000000000000000000008152508160009080519060200190620026d692919062002a9f565b508060019080519060200190620026ef92919062002a9f565b505050806018819055505062002c89565b82805482825590600052602060002090810192821562002754579160200282015b82811115620027535782518290805190602001906200274292919062002a9f565b509160200191906001019062002721565b5b50905062002763919062002b30565b5090565b828054828255906000526020600020908101928215620027bb579160200282015b82811115620027ba578251829080519060200190620027a992919062002a9f565b509160200191906001019062002788565b5b509050620027ca919062002b30565b5090565b82805482825590600052602060002090810192821562002822579160200282015b82811115620028215782518290805190602001906200281092919062002a9f565b5091602001919060010190620027ef565b5b50905062002831919062002b30565b5090565b82805482825590600052602060002090810192821562002889579160200282015b82811115620028885782518290805190602001906200287792919062002a9f565b509160200191906001019062002856565b5b50905062002898919062002b30565b5090565b828054828255906000526020600020908101928215620028f0579160200282015b82811115620028ef578251829080519060200190620028de92919062002a9f565b5091602001919060010190620028bd565b5b509050620028ff919062002b30565b5090565b82805482825590600052602060002090810192821562002957579160200282015b82811115620029565782518290805190602001906200294592919062002a9f565b509160200191906001019062002924565b5b50905062002966919062002b30565b5090565b828054828255906000526020600020908101928215620029be579160200282015b82811115620029bd578251829080519060200190620029ac92919062002a9f565b50916020019190600101906200298b565b5b509050620029cd919062002b30565b5090565b82805482825590600052602060002090810192821562002a25579160200282015b8281111562002a2457825182908051906020019062002a1392919062002a9f565b5091602001919060010190620029f2565b5b50905062002a34919062002b30565b5090565b82805482825590600052602060002090810192821562002a8c579160200282015b8281111562002a8b57825182908051906020019062002a7a92919062002a9f565b509160200191906001019062002a59565b5b50905062002a9b919062002b30565b5090565b82805462002aad9062002c0a565b90600052602060002090601f01602090048101928262002ad1576000855562002b1d565b82601f1062002aec57805160ff191683800117855562002b1d565b8280016001018555821562002b1d579182015b8281111562002b1c57825182559160200191906001019062002aff565b5b50905062002b2c919062002b58565b5090565b5b8082111562002b54576000818162002b4a919062002b77565b5060010162002b31565b5090565b5b8082111562002b7357600081600090555060010162002b59565b5090565b50805462002b859062002c0a565b6000825580601f1062002b99575062002bba565b601f01602090049060005260206000209081019062002bb9919062002b58565b5b50565b60008151905062002bce8162002c6f565b92915050565b60006020828403121562002be757600080fd5b600062002bf78482850162002bbd565b91505092915050565b6000819050919050565b6000600282049050600182168062002c2357607f821691505b6020821081141562002c3a5762002c3962002c40565b5b50919050565b7f4e487b7100000000000000000000000000000000000000000000000000000000600052602260045260246000fd5b62002c7a8162002c00565b811462002c8657600080fd5b50565b614dc48062002c996000396000f3fe608060405234801561001057600080fd5b50600436106102065760003560e01c80637ecaef061161011a578063b70930de116100ad578063c87b56dd1161007c578063c87b56dd146106bb578063cc4e5695146106eb578063d5abeb011461071b578063dac1419e14610739578063e985e9c51461076957610206565b8063b70930de1461060f578063b88d4fde1461063f578063be65d7511461065b578063c0496cf51461068b57610206565b806395d89b41116100e957806395d89b41146105755780639decff6d14610593578063a22cb465146105c3578063a2ec3e9e146105df57610206565b80637ecaef06146104b557806384425a84146104e55780638602dd6a1461051557806388ee2c161461054557610206565b806323b872dd1161019d5780634f6ccce71161016c5780634f6ccce7146103c557806360d58aed146103f55780636352211e1461042557806370a082311461045557806373075aff1461048557610206565b806323b872dd1461032d5780632f745c5914610349578063425d784f1461037957806342842e0e146103a957610206565b8063095ea7b3116101d9578063095ea7b3146102b95780631249c58b146102d557806318160ddd146102df57806318a3c0d1146102fd57610206565b806301ffc9a71461020b578063039984ba1461023b57806306fdde031461026b578063081812fc14610289575b600080fd5b61022560048036038101906102209190613517565b610799565b6040516102329190613da9565b60405180910390f35b61025560048036038101906102509190613569565b6107ab565b6040516102629190613dc4565b60405180910390f35b6102736108a3565b6040516102809190613dc4565b60405180910390f35b6102a3600480360381019061029e9190613569565b610935565b6040516102b09190613d42565b60405180910390f35b6102d360048036038101906102ce91906134db565b61097b565b005b6102dd610a93565b005b6102e7610b1d565b6040516102f49190613fc6565b60405180910390f35b61031760048036038101906103129190613569565b610b2a565b6040516103249190613dc4565b60405180910390f35b610347600480360381019061034291906133d5565b610c22565b005b610363600480360381019061035e91906134db565b610c82565b6040516103709190613fc6565b60405180910390f35b610393600480360381019061038e9190613569565b610d27565b6040516103a09190613dc4565b60405180910390f35b6103c360048036038101906103be91906133d5565b610e1f565b005b6103df60048036038101906103da9190613569565b610e3f565b6040516103ec9190613fc6565b60405180910390f35b61040f600480360381019061040a9190613569565b610ed6565b60405161041c9190613dc4565b60405180910390f35b61043f600480360381019061043a9190613569565b610fce565b60405161044c9190613d42565b60405180910390f35b61046f600480360381019061046a9190613370565b611080565b60405161047c9190613fc6565b60405180910390f35b61049f600480360381019061049a9190613569565b611138565b6040516104ac9190613dc4565b60405180910390f35b6104cf60048036038101906104ca9190613569565b611230565b6040516104dc9190613dc4565b60405180910390f35b6104ff60048036038101906104fa9190613569565b611328565b60405161050c9190613dc4565b60405180910390f35b61052f600480360381019061052a9190613569565b611420565b60405161053c9190613dc4565b60405180910390f35b61055f600480360381019061055a9190613592565b611518565b60405161056c9190613fc6565b60405180910390f35b61057d61157e565b60405161058a9190613dc4565b60405180910390f35b6105ad60048036038101906105a89190613569565b611610565b6040516105ba9190613dc4565b60405180910390f35b6105dd60048036038101906105d8919061349f565b611656565b005b6105f960048036038101906105f49190613569565b61166c565b6040516106069190613dc4565b60405180910390f35b61062960048036038101906106249190613569565b611764565b6040516106369190613dc4565b60405180910390f35b61065960048036038101906106549190613424565b61185c565b005b61067560048036038101906106709190613569565b6118be565b6040516106829190613fc6565b60405180910390f35b6106a560048036038101906106a09190613569565b6118d6565b6040516106b29190613dc4565b60405180910390f35b6106d560048036038101906106d09190613569565b6119ce565b6040516106e29190613dc4565b60405180910390f35b61070560048036038101906107009190613569565b611a9d565b6040516107129190613dc4565b60405180910390f35b610723611b95565b6040516107309190613fc6565b60405180910390f35b610753600480360381019061074e9190613569565b611b9b565b6040516107609190613dc4565b60405180910390f35b610783600480360381019061077e9190613399565b611c93565b6040516107909190613da9565b60405180910390f35b60006107a482611d27565b9050919050565b606060006107ba836008611da1565b60ff169050600e8080549050826107d191906144b0565b81548110610808577f4e487b7100000000000000000000000000000000000000000000000000000000600052603260045260246000fd5b90600052602060002001805461081d906143fa565b80601f0160208091040260200160405190810160405280929190818152602001828054610849906143fa565b80156108965780601f1061086b57610100808354040283529160200191610896565b820191906000526020600020905b81548152906001019060200180831161087957829003601f168201915b5050505050915050919050565b6060600080546108b2906143fa565b80601f01602080910402602001604051908101604052809291908181526020018280546108de906143fa565b801561092b5780601f106109005761010080835404028352916020019161092b565b820191906000526020600020905b81548152906001019060200180831161090e57829003601f168201915b5050505050905090565b600061094082611dfe565b6004600083815260200190815260200160002060009054906101000a900473ffffffffffffffffffffffffffffffffffffffff169050919050565b600061098682610fce565b90508073ffffffffffffffffffffffffffffffffffffffff168373ffffffffffffffffffffffffffffffffffffffff1614156109f7576040517f08c379a00000000000000000000000000000000000000000000000000000000081526004016109ee90613f46565b60405180910390fd5b8073ffffffffffffffffffffffffffffffffffffffff16610a16611e49565b73ffffffffffffffffffffffffffffffffffffffff161480610a455750610a4481610a3f611e49565b611c93565b5b610a84576040517f08c379a0000000000000000000000000000000000000000000000000000000008152600401610a7b90613ec6565b60405180910390fd5b610a8e8383611e51565b505050565b6000610a9f6017611f0a565b90506018548110610ae5576040517f08c379a0000000000000000000000000000000000000000000000000000000008152600401610adc90613f06565b60405180910390fd5b610aef8133611518565b6019600083815260200190815260200160002081905550610b103382611f18565b610b1a6017611f36565b50565b6000600880549050905090565b60606000610b39836004611da1565b60ff169050600c808054905082610b5091906144b0565b81548110610b87577f4e487b7100000000000000000000000000000000000000000000000000000000600052603260045260246000fd5b906000526020600020018054610b9c906143fa565b80601f0160208091040260200160405190810160405280929190818152602001828054610bc8906143fa565b8015610c155780601f10610bea57610100808354040283529160200191610c15565b820191906000526020600020905b815481529060010190602001808311610bf857829003601f168201915b5050505050915050919050565b610c33610c2d611e49565b82611f4c565b610c72576040517f08c379a0000000000000000000000000000000000000000000000000000000008152600401610c6990613f86565b60405180910390fd5b610c7d838383611fe1565b505050565b6000610c8d83611080565b8210610cce576040517f08c379a0000000000000000000000000000000000000000000000000000000008152600401610cc590613de6565b60405180910390fd5b600660008473ffffffffffffffffffffffffffffffffffffffff1673ffffffffffffffffffffffffffffffffffffffff168152602001908152602001600020600083815260200190815260200160002054905092915050565b60606000610d36836014611da1565b60ff1690506014808054905082610d4d91906144b0565b81548110610d84577f4e487b7100000000000000000000000000000000000000000000000000000000600052603260045260246000fd5b906000526020600020018054610d99906143fa565b80601f0160208091040260200160405190810160405280929190818152602001828054610dc5906143fa565b8015610e125780601f10610de757610100808354040283529160200191610e12565b820191906000526020600020905b815481529060010190602001808311610df557829003601f168201915b5050505050915050919050565b610e3a8383836040518060200160405280600081525061185c565b505050565b6000610e49610b1d565b8210610e8a576040517f08c379a0000000000000000000000000000000000000000000000000000000008152600401610e8190613f66565b60405180910390fd5b60088281548110610ec4577f4e487b7100000000000000000000000000000000000000000000000000000000600052603260045260246000fd5b90600052602060002001549050919050565b60606000610ee5836018611da1565b60ff1690506016808054905082610efc91906144b0565b81548110610f33577f4e487b7100000000000000000000000000000000000000000000000000000000600052603260045260246000fd5b906000526020600020018054610f48906143fa565b80601f0160208091040260200160405190810160405280929190818152602001828054610f74906143fa565b8015610fc15780601f10610f9657610100808354040283529160200191610fc1565b820191906000526020600020905b815481529060010190602001808311610fa457829003601f168201915b5050505050915050919050565b6000806002600084815260200190815260200160002060009054906101000a900473ffffffffffffffffffffffffffffffffffffffff169050600073ffffffffffffffffffffffffffffffffffffffff168173ffffffffffffffffffffffffffffffffffffffff161415611077576040517f08c379a000000000000000000000000000000000000000000000000000000000815260040161106e90613f26565b60405180910390fd5b80915050919050565b60008073ffffffffffffffffffffffffffffffffffffffff168273ffffffffffffffffffffffffffffffffffffffff1614156110f1576040517f08c379a00000000000000000000000000000000000000000000000000000000081526004016110e890613ea6565b60405180910390fd5b600360008373ffffffffffffffffffffffffffffffffffffffff1673ffffffffffffffffffffffffffffffffffffffff168152602001908152602001600020549050919050565b60606000611147836016611da1565b60ff169050601580805490508261115e91906144b0565b81548110611195577f4e487b7100000000000000000000000000000000000000000000000000000000600052603260045260246000fd5b9060005260206000200180546111aa906143fa565b80601f01602080910402602001604051908101604052809291908181526020018280546111d6906143fa565b80156112235780601f106111f857610100808354040283529160200191611223565b820191906000526020600020905b81548152906001019060200180831161120657829003601f168201915b5050505050915050919050565b6060600061123f836000611da1565b9050600a80805490508260ff1661125691906144b0565b8154811061128d577f4e487b7100000000000000000000000000000000000000000000000000000000600052603260045260246000fd5b9060005260206000200180546112a2906143fa565b80601f01602080910402602001604051908101604052809291908181526020018280546112ce906143fa565b801561131b5780601f106112f05761010080835404028352916020019161131b565b820191906000526020600020905b8154815290600101906020018083116112fe57829003601f168201915b5050505050915050919050565b60606000611337836006611da1565b60ff169050600d80805490508261134e91906144b0565b81548110611385577f4e487b7100000000000000000000000000000000000000000000000000000000600052603260045260246000fd5b90600052602060002001805461139a906143fa565b80601f01602080910402602001604051908101604052809291908181526020018280546113c6906143fa565b80156114135780601f106113e857610100808354040283529160200191611413565b820191906000526020600020905b8154815290600101906020018083116113f657829003601f168201915b5050505050915050919050565b6060600061142f836012611da1565b60ff169050601380805490508261144691906144b0565b8154811061147d577f4e487b7100000000000000000000000000000000000000000000000000000000600052603260045260246000fd5b906000526020600020018054611492906143fa565b80601f01602080910402602001604051908101604052809291908181526020018280546114be906143fa565b801561150b5780601f106114e05761010080835404028352916020019161150b565b820191906000526020600020905b8154815290600101906020018083116114ee57829003601f168201915b5050505050915050919050565b6000808273ffffffffffffffffffffffffffffffffffffffff168461153d919061407a565b90506000816040516020016115529190613d27565b60405160208183030381529060405290506000818051906020012090508060001c935050505092915050565b60606001805461158d906143fa565b80601f01602080910402602001604051908101604052809291908181526020018280546115b9906143fa565b80156116065780601f106115db57610100808354040283529160200191611606565b820191906000526020600020905b8154815290600101906020018083116115e957829003601f168201915b5050505050905090565b6060600061161c612248565b9050600061162984612285565b9050818160405160200161163e929190613b67565b60405160208183030381529060405292505050919050565b611668611661611e49565b8383612352565b5050565b6060600061167b836010611da1565b60ff169050601280805490508261169291906144b0565b815481106116c9577f4e487b7100000000000000000000000000000000000000000000000000000000600052603260045260246000fd5b9060005260206000200180546116de906143fa565b80601f016020809104026020016040519081016040528092919081815260200182805461170a906143fa565b80156117575780601f1061172c57610100808354040283529160200191611757565b820191906000526020600020905b81548152906001019060200180831161173a57829003601f168201915b5050505050915050919050565b6060600061177383600e611da1565b60ff169050601180805490508261178a91906144b0565b815481106117c1577f4e487b7100000000000000000000000000000000000000000000000000000000600052603260045260246000fd5b9060005260206000200180546117d6906143fa565b80601f0160208091040260200160405190810160405280929190818152602001828054611802906143fa565b801561184f5780601f106118245761010080835404028352916020019161184f565b820191906000526020600020905b81548152906001019060200180831161183257829003601f168201915b5050505050915050919050565b61186d611867611e49565b83611f4c565b6118ac576040517f08c379a00000000000000000000000000000000000000000000000000000000081526004016118a390613f86565b60405180910390fd5b6118b8848484846124bf565b50505050565b60196020528060005260406000206000915090505481565b606060006118e5836002611da1565b9050600b80805490508260ff166118fc91906144b0565b81548110611933577f4e487b7100000000000000000000000000000000000000000000000000000000600052603260045260246000fd5b906000526020600020018054611948906143fa565b80601f0160208091040260200160405190810160405280929190818152602001828054611974906143fa565b80156119c15780601f10611996576101008083540402835291602001916119c1565b820191906000526020600020905b8154815290600101906020018083116119a457829003601f168201915b5050505050915050919050565b60606119d98261251b565b611a18576040517f08c379a0000000000000000000000000000000000000000000000000000000008152600401611a0f90613fa6565b60405180910390fd5b6000601960008481526020019081526020016000205490506000611a3b82611610565b90506000611a71611a4b86612587565b83604051602001611a5d929190613b96565b604051602081830303815290604052612734565b905080604051602001611a849190613d05565b6040516020818303038152906040529350505050919050565b60606000611aac83600a611da1565b60ff169050600f808054905082611ac391906144b0565b81548110611afa577f4e487b7100000000000000000000000000000000000000000000000000000000600052603260045260246000fd5b906000526020600020018054611b0f906143fa565b80601f0160208091040260200160405190810160405280929190818152602001828054611b3b906143fa565b8015611b885780601f10611b5d57610100808354040283529160200191611b88565b820191906000526020600020905b815481529060010190602001808311611b6b57829003601f168201915b5050505050915050919050565b60185481565b60606000611baa83600c611da1565b60ff1690506010808054905082611bc191906144b0565b81548110611bf8577f4e487b7100000000000000000000000000000000000000000000000000000000600052603260045260246000fd5b906000526020600020018054611c0d906143fa565b80601f0160208091040260200160405190810160405280929190818152602001828054611c39906143fa565b8015611c865780601f10611c5b57610100808354040283529160200191611c86565b820191906000526020600020905b815481529060010190602001808311611c6957829003601f168201915b5050505050915050919050565b6000600560008473ffffffffffffffffffffffffffffffffffffffff1673ffffffffffffffffffffffffffffffffffffffff16815260200190815260200160002060008373ffffffffffffffffffffffffffffffffffffffff1673ffffffffffffffffffffffffffffffffffffffff16815260200190815260200160002060009054906101000a900460ff16905092915050565b60007f780e9d63000000000000000000000000000000000000000000000000000000007bffffffffffffffffffffffffffffffffffffffffffffffffffffffff1916827bffffffffffffffffffffffffffffffffffffffffffffffffffffffff19161480611d9a5750611d99826128be565b5b9050919050565b600081600a611db0919061418b565b6001611dbc91906142a9565b600283611dc991906140d0565b600a611dd5919061418b565b6001611de191906142a9565b84611dec91906144b0565b611df69190614107565b905092915050565b611e078161251b565b611e46576040517f08c379a0000000000000000000000000000000000000000000000000000000008152600401611e3d90613f26565b60405180910390fd5b50565b600033905090565b816004600083815260200190815260200160002060006101000a81548173ffffffffffffffffffffffffffffffffffffffff021916908373ffffffffffffffffffffffffffffffffffffffff160217905550808273ffffffffffffffffffffffffffffffffffffffff16611ec483610fce565b73ffffffffffffffffffffffffffffffffffffffff167f8c5be1e5ebec7d5bd14f71427d1e84f3dd0314c0f7b2291e5b200ac8c7c3b92560405160405180910390a45050565b600081600001549050919050565b611f328282604051806020016040528060008152506129a0565b5050565b6001816000016000828254019250508190555050565b600080611f5883610fce565b90508073ffffffffffffffffffffffffffffffffffffffff168473ffffffffffffffffffffffffffffffffffffffff161480611f9a5750611f998185611c93565b5b80611fd857508373ffffffffffffffffffffffffffffffffffffffff16611fc084610935565b73ffffffffffffffffffffffffffffffffffffffff16145b91505092915050565b8273ffffffffffffffffffffffffffffffffffffffff1661200182610fce565b73ffffffffffffffffffffffffffffffffffffffff1614612057576040517f08c379a000000000000000000000000000000000000000000000000000000000815260040161204e90613e26565b60405180910390fd5b600073ffffffffffffffffffffffffffffffffffffffff168273ffffffffffffffffffffffffffffffffffffffff1614156120c7576040517f08c379a00000000000000000000000000000000000000000000000000000000081526004016120be90613e66565b60405180910390fd5b6120d28383836129fb565b6120dd600082611e51565b6001600360008573ffffffffffffffffffffffffffffffffffffffff1673ffffffffffffffffffffffffffffffffffffffff168152602001908152602001600020600082825461212d9190614303565b925050819055506001600360008473ffffffffffffffffffffffffffffffffffffffff1673ffffffffffffffffffffffffffffffffffffffff1681526020019081526020016000206000828254612184919061407a565b92505081905550816002600083815260200190815260200160002060006101000a81548173ffffffffffffffffffffffffffffffffffffffff021916908373ffffffffffffffffffffffffffffffffffffffff160217905550808273ffffffffffffffffffffffffffffffffffffffff168473ffffffffffffffffffffffffffffffffffffffff167fddf252ad1be2c89b69c2b068fc378daa952ba7f163c4a11628f55a4df523b3ef60405160405180910390a4612243838383612a0b565b505050565b60606040518060400160405280601481526020017f687474703a2f2f6176617461616172732e696f2f000000000000000000000000815250905090565b60608061229183611230565b61229a846118d6565b6122a385610b2a565b6122ac86611328565b6122b5876107ab565b6122be88611a9d565b6122c789611b9b565b6122d08a611764565b6122d98b61166c565b6122e28c611420565b6122eb8d610d27565b6122f48e611138565b60405160200161230f9c9b9a99989796959493929190613bdb565b60405160208183030381529060405290508061232a84610ed6565b60405160200161233b929190613b38565b604051602081830303815290604052915050919050565b8173ffffffffffffffffffffffffffffffffffffffff168373ffffffffffffffffffffffffffffffffffffffff1614156123c1576040517f08c379a00000000000000000000000000000000000000000000000000000000081526004016123b890613e86565b60405180910390fd5b80600560008573ffffffffffffffffffffffffffffffffffffffff1673ffffffffffffffffffffffffffffffffffffffff16815260200190815260200160002060008473ffffffffffffffffffffffffffffffffffffffff1673ffffffffffffffffffffffffffffffffffffffff16815260200190815260200160002060006101000a81548160ff0219169083151502179055508173ffffffffffffffffffffffffffffffffffffffff168373ffffffffffffffffffffffffffffffffffffffff167f17307eab39ab6107e8899845ad3d59bd9653f200f220920489ca2b5937696c31836040516124b29190613da9565b60405180910390a3505050565b6124ca848484611fe1565b6124d684848484612a10565b612515576040517f08c379a000000000000000000000000000000000000000000000000000000000815260040161250c90613e06565b60405180910390fd5b50505050565b60008073ffffffffffffffffffffffffffffffffffffffff166002600084815260200190815260200160002060009054906101000a900473ffffffffffffffffffffffffffffffffffffffff1673ffffffffffffffffffffffffffffffffffffffff1614159050919050565b606060008214156125cf576040518060400160405280600181526020017f3000000000000000000000000000000000000000000000000000000000000000815250905061272f565b600082905060005b600082146126015780806125ea9061445d565b915050600a826125fa9190614107565b91506125d7565b60008167ffffffffffffffff811115612643577f4e487b7100000000000000000000000000000000000000000000000000000000600052604160045260246000fd5b6040519080825280601f01601f1916602001820160405280156126755781602001600182028036833780820191505090505b5090505b600085146127285760018261268e9190614303565b9150600a8561269d91906144b0565b60306126a9919061407a565b60f81b8183815181106126e5577f4e487b7100000000000000000000000000000000000000000000000000000000600052603260045260246000fd5b60200101907effffffffffffffffffffffffffffffffffffffffffffffffffffffffffffff1916908160001a905350600a856127219190614107565b9450612679565b8093505050505b919050565b6060600082511415612757576040518060200160405280600081525090506128b9565b6000604051806060016040528060408152602001614d4f6040913990506000600360028551612786919061407a565b6127909190614107565b600461279c91906142a9565b67ffffffffffffffff8111156127db577f4e487b7100000000000000000000000000000000000000000000000000000000600052604160045260246000fd5b6040519080825280601f01601f19166020018201604052801561280d5781602001600182028036833780820191505090505b509050600182016020820185865187015b80821015612879576003820191508151603f8160121c168501518453600184019350603f81600c1c168501518453600184019350603f8160061c168501518453600184019350603f811685015184536001840193505061281e565b505060038651066001811461289557600281146128a8576128b0565b603d6001830353603d60028303536128b0565b603d60018303535b50505080925050505b919050565b60007f80ac58cd000000000000000000000000000000000000000000000000000000007bffffffffffffffffffffffffffffffffffffffffffffffffffffffff1916827bffffffffffffffffffffffffffffffffffffffffffffffffffffffff1916148061298957507f5b5e139f000000000000000000000000000000000000000000000000000000007bffffffffffffffffffffffffffffffffffffffffffffffffffffffff1916827bffffffffffffffffffffffffffffffffffffffffffffffffffffffff1916145b80612999575061299882612ba7565b5b9050919050565b6129aa8383612c11565b6129b76000848484612a10565b6129f6576040517f08c379a00000000000000000000000000000000000000000000000000000000081526004016129ed90613e06565b60405180910390fd5b505050565b612a06838383612deb565b505050565b505050565b6000612a318473ffffffffffffffffffffffffffffffffffffffff16612eff565b15612b9a578373ffffffffffffffffffffffffffffffffffffffff1663150b7a02612a5a611e49565b8786866040518563ffffffff1660e01b8152600401612a7c9493929190613d5d565b602060405180830381600087803b158015612a9657600080fd5b505af1925050508015612ac757506040513d601f19601f82011682018060405250810190612ac49190613540565b60015b612b4a573d8060008114612af7576040519150601f19603f3d011682016040523d82523d6000602084013e612afc565b606091505b50600081511415612b42576040517f08c379a0000000000000000000000000000000000000000000000000000000008152600401612b3990613e06565b60405180910390fd5b805181602001fd5b63150b7a0260e01b7bffffffffffffffffffffffffffffffffffffffffffffffffffffffff1916817bffffffffffffffffffffffffffffffffffffffffffffffffffffffff191614915050612b9f565b600190505b949350505050565b60007f01ffc9a7000000000000000000000000000000000000000000000000000000007bffffffffffffffffffffffffffffffffffffffffffffffffffffffff1916827bffffffffffffffffffffffffffffffffffffffffffffffffffffffff1916149050919050565b600073ffffffffffffffffffffffffffffffffffffffff168273ffffffffffffffffffffffffffffffffffffffff161415612c81576040517f08c379a0000000000000000000000000000000000000000000000000000000008152600401612c7890613ee6565b60405180910390fd5b612c8a8161251b565b15612cca576040517f08c379a0000000000000000000000000000000000000000000000000000000008152600401612cc190613e46565b60405180910390fd5b612cd6600083836129fb565b6001600360008473ffffffffffffffffffffffffffffffffffffffff1673ffffffffffffffffffffffffffffffffffffffff1681526020019081526020016000206000828254612d26919061407a565b92505081905550816002600083815260200190815260200160002060006101000a81548173ffffffffffffffffffffffffffffffffffffffff021916908373ffffffffffffffffffffffffffffffffffffffff160217905550808273ffffffffffffffffffffffffffffffffffffffff16600073ffffffffffffffffffffffffffffffffffffffff167fddf252ad1be2c89b69c2b068fc378daa952ba7f163c4a11628f55a4df523b3ef60405160405180910390a4612de760008383612a0b565b5050565b612df6838383612f22565b600073ffffffffffffffffffffffffffffffffffffffff168373ffffffffffffffffffffffffffffffffffffffff161415612e3957612e3481612f27565b612e78565b8173ffffffffffffffffffffffffffffffffffffffff168373ffffffffffffffffffffffffffffffffffffffff1614612e7757612e768382612f70565b5b5b600073ffffffffffffffffffffffffffffffffffffffff168273ffffffffffffffffffffffffffffffffffffffff161415612ebb57612eb6816130dd565b612efa565b8273ffffffffffffffffffffffffffffffffffffffff168273ffffffffffffffffffffffffffffffffffffffff1614612ef957612ef88282613220565b5b5b505050565b6000808273ffffffffffffffffffffffffffffffffffffffff163b119050919050565b505050565b6008805490506009600083815260200190815260200160002081905550600881908060018154018082558091505060019003906000526020600020016000909190919091505550565b60006001612f7d84611080565b612f879190614303565b905060006007600084815260200190815260200160002054905081811461306c576000600660008673ffffffffffffffffffffffffffffffffffffffff1673ffffffffffffffffffffffffffffffffffffffff168152602001908152602001600020600084815260200190815260200160002054905080600660008773ffffffffffffffffffffffffffffffffffffffff1673ffffffffffffffffffffffffffffffffffffffff168152602001908152602001600020600084815260200190815260200160002081905550816007600083815260200190815260200160002081905550505b6007600084815260200190815260200160002060009055600660008573ffffffffffffffffffffffffffffffffffffffff1673ffffffffffffffffffffffffffffffffffffffff16815260200190815260200160002060008381526020019081526020016000206000905550505050565b600060016008805490506130f19190614303565b9050600060096000848152602001908152602001600020549050600060088381548110613147577f4e487b7100000000000000000000000000000000000000000000000000000000600052603260045260246000fd5b90600052602060002001549050806008838154811061318f577f4e487b7100000000000000000000000000000000000000000000000000000000600052603260045260246000fd5b906000526020600020018190555081600960008381526020019081526020016000208190555060096000858152602001908152602001600020600090556008805480613204577f4e487b7100000000000000000000000000000000000000000000000000000000600052603160045260246000fd5b6001900381819060005260206000200160009055905550505050565b600061322b83611080565b905081600660008573ffffffffffffffffffffffffffffffffffffffff1673ffffffffffffffffffffffffffffffffffffffff168152602001908152602001600020600083815260200190815260200160002081905550806007600084815260200190815260200160002081905550505050565b60006132b26132ad84614006565b613fe1565b9050828152602081018484840111156132ca57600080fd5b6132d58482856143b8565b509392505050565b6000813590506132ec81614cf2565b92915050565b60008135905061330181614d09565b92915050565b60008135905061331681614d20565b92915050565b60008151905061332b81614d20565b92915050565b600082601f83011261334257600080fd5b813561335284826020860161329f565b91505092915050565b60008135905061336a81614d37565b92915050565b60006020828403121561338257600080fd5b6000613390848285016132dd565b91505092915050565b600080604083850312156133ac57600080fd5b60006133ba858286016132dd565b92505060206133cb858286016132dd565b9150509250929050565b6000806000606084860312156133ea57600080fd5b60006133f8868287016132dd565b9350506020613409868287016132dd565b925050604061341a8682870161335b565b9150509250925092565b6000806000806080858703121561343a57600080fd5b6000613448878288016132dd565b9450506020613459878288016132dd565b935050604061346a8782880161335b565b925050606085013567ffffffffffffffff81111561348757600080fd5b61349387828801613331565b91505092959194509250565b600080604083850312156134b257600080fd5b60006134c0858286016132dd565b92505060206134d1858286016132f2565b9150509250929050565b600080604083850312156134ee57600080fd5b60006134fc858286016132dd565b925050602061350d8582860161335b565b9150509250929050565b60006020828403121561352957600080fd5b600061353784828501613307565b91505092915050565b60006020828403121561355257600080fd5b60006135608482850161331c565b91505092915050565b60006020828403121561357b57600080fd5b60006135898482850161335b565b91505092915050565b600080604083850312156135a557600080fd5b60006135b38582860161335b565b92505060206135c4858286016132dd565b9150509250929050565b6135d781614337565b82525050565b6135e681614349565b82525050565b60006135f782614037565b613601818561404d565b93506136118185602086016143c7565b61361a8161459d565b840191505092915050565b600061363082614042565b61363a818561405e565b935061364a8185602086016143c7565b6136538161459d565b840191505092915050565b600061366982614042565b613673818561406f565b93506136838185602086016143c7565b80840191505092915050565b600061369c60098361406f565b91506136a7826145bb565b600982019050919050565b60006136bf60118361406f565b91506136ca826145e4565b601182019050919050565b60006136e2602b8361405e565b91506136ed8261460d565b604082019050919050565b600061370560328361405e565b91506137108261465c565b604082019050919050565b600061372860258361405e565b9150613733826146ab565b604082019050919050565b600061374b601c8361405e565b9150613756826146fa565b602082019050919050565b600061376e600a8361406f565b915061377982614723565b600a82019050919050565b6000613791600c8361406f565b915061379c8261474c565b600c82019050919050565b60006137b460248361405e565b91506137bf82614775565b604082019050919050565b60006137d760198361405e565b91506137e2826147c4565b602082019050919050565b60006137fa600b8361406f565b9150613805826147ed565b600b82019050919050565b600061381d600d8361406f565b915061382882614816565b600d82019050919050565b6000613840600b8361406f565b915061384b8261483f565b600b82019050919050565b600061386360018361406f565b915061386e82614868565b600182019050919050565b600061388660188361406f565b915061389182614891565b601882019050919050565b60006138a960298361405e565b91506138b4826148ba565b604082019050919050565b60006138cc600b8361406f565b91506138d782614909565b600b82019050919050565b60006138ef60028361406f565b91506138fa82614932565b600282019050919050565b6000613912603e8361405e565b915061391d8261495b565b604082019050919050565b600061393560208361405e565b9150613940826149aa565b602082019050919050565b600061395860168361405e565b9150613963826149d3565b602082019050919050565b600061397b60798361406f565b9150613986826149fc565b607982019050919050565b600061399e600d8361406f565b91506139a982614a97565b600d82019050919050565b60006139c160098361406f565b91506139cc82614ac0565b600982019050919050565b60006139e460188361405e565b91506139ef82614ae9565b602082019050919050565b6000613a0760218361405e565b9150613a1282614b12565b604082019050919050565b6000613a2a600d8361406f565b9150613a3582614b61565b600d82019050919050565b6000613a4d60108361406f565b9150613a5882614b8a565b601082019050919050565b6000613a70601d8361406f565b9150613a7b82614bb3565b601d82019050919050565b6000613a93602c8361405e565b9150613a9e82614bdc565b604082019050919050565b6000613ab660108361406f565b9150613ac182614c2b565b601082019050919050565b6000613ad9602e8361405e565b9150613ae482614c54565b604082019050919050565b6000613afc60308361405e565b9150613b0782614ca3565b604082019050919050565b613b1b816143a1565b82525050565b613b32613b2d826143a1565b6144a6565b82525050565b6000613b44828561365e565b9150613b4f8261368f565b9150613b5b828461365e565b91508190509392505050565b6000613b73828561365e565b9150613b7e82613856565b9150613b8a828461365e565b91508190509392505050565b6000613ba182613879565b9150613bad828561365e565b9150613bb88261396e565b9150613bc4828461365e565b9150613bcf826138e2565b91508190509392505050565b6000613be682613a40565b9150613bf2828f61365e565b9150613bfd82613810565b9150613c09828e61365e565b9150613c1482613784565b9150613c20828d61365e565b9150613c2b826139b4565b9150613c37828c61365e565b9150613c4282613a1d565b9150613c4e828b61365e565b9150613c59826136b2565b9150613c65828a61365e565b9150613c7082613aa9565b9150613c7c828961365e565b9150613c87826137ed565b9150613c93828861365e565b9150613c9e82613761565b9150613caa828761365e565b9150613cb582613991565b9150613cc1828661365e565b9150613ccc826138bf565b9150613cd8828561365e565b9150613ce382613833565b9150613cef828461365e565b91508190509d9c50505050505050505050505050565b6000613d1082613a63565b9150613d1c828461365e565b915081905092915050565b6000613d338284613b21565b60208201915081905092915050565b6000602082019050613d5760008301846135ce565b92915050565b6000608082019050613d7260008301876135ce565b613d7f60208301866135ce565b613d8c6040830185613b12565b8181036060830152613d9e81846135ec565b905095945050505050565b6000602082019050613dbe60008301846135dd565b92915050565b60006020820190508181036000830152613dde8184613625565b905092915050565b60006020820190508181036000830152613dff816136d5565b9050919050565b60006020820190508181036000830152613e1f816136f8565b9050919050565b60006020820190508181036000830152613e3f8161371b565b9050919050565b60006020820190508181036000830152613e5f8161373e565b9050919050565b60006020820190508181036000830152613e7f816137a7565b9050919050565b60006020820190508181036000830152613e9f816137ca565b9050919050565b60006020820190508181036000830152613ebf8161389c565b9050919050565b60006020820190508181036000830152613edf81613905565b9050919050565b60006020820190508181036000830152613eff81613928565b9050919050565b60006020820190508181036000830152613f1f8161394b565b9050919050565b60006020820190508181036000830152613f3f816139d7565b9050919050565b60006020820190508181036000830152613f5f816139fa565b9050919050565b60006020820190508181036000830152613f7f81613a86565b9050919050565b60006020820190508181036000830152613f9f81613acc565b9050919050565b60006020820190508181036000830152613fbf81613aef565b9050919050565b6000602082019050613fdb6000830184613b12565b92915050565b6000613feb613ffc565b9050613ff7828261442c565b919050565b6000604051905090565b600067ffffffffffffffff8211156140215761402061456e565b5b61402a8261459d565b9050602081019050919050565b600081519050919050565b600081519050919050565b600082825260208201905092915050565b600082825260208201905092915050565b600081905092915050565b6000614085826143a1565b9150614090836143a1565b9250827fffffffffffffffffffffffffffffffffffffffffffffffffffffffffffffffff038211156140c5576140c46144e1565b5b828201905092915050565b60006140db826143ab565b91506140e6836143ab565b92508260ff038211156140fc576140fb6144e1565b5b828201905092915050565b6000614112826143a1565b915061411d836143a1565b92508261412d5761412c614510565b5b828204905092915050565b6000808291508390505b60018511156141825780860481111561415e5761415d6144e1565b5b600185161561416d5780820291505b808102905061417b856145ae565b9450614142565b94509492505050565b6000614196826143a1565b91506141a1836143ab565b92506141ce7fffffffffffffffffffffffffffffffffffffffffffffffffffffffffffffffff84846141d6565b905092915050565b6000826141e657600190506142a2565b816141f457600090506142a2565b816001811461420a576002811461421457614243565b60019150506142a2565b60ff841115614226576142256144e1565b5b8360020a91508482111561423d5761423c6144e1565b5b506142a2565b5060208310610133831016604e8410600b84101617156142785782820a905083811115614273576142726144e1565b5b6142a2565b6142858484846001614138565b9250905081840481111561429c5761429b6144e1565b5b81810290505b9392505050565b60006142b4826143a1565b91506142bf836143a1565b9250817fffffffffffffffffffffffffffffffffffffffffffffffffffffffffffffffff04831182151516156142f8576142f76144e1565b5b828202905092915050565b600061430e826143a1565b9150614319836143a1565b92508282101561432c5761432b6144e1565b5b828203905092915050565b600061434282614381565b9050919050565b60008115159050919050565b60007fffffffff0000000000000000000000000000000000000000000000000000000082169050919050565b600073ffffffffffffffffffffffffffffffffffffffff82169050919050565b6000819050919050565b600060ff82169050919050565b82818337600083830152505050565b60005b838110156143e55780820151818401526020810190506143ca565b838111156143f4576000848401525b50505050565b6000600282049050600182168061441257607f821691505b602082108114156144265761442561453f565b5b50919050565b6144358261459d565b810181811067ffffffffffffffff821117156144545761445361456e565b5b80604052505050565b6000614468826143a1565b91507fffffffffffffffffffffffffffffffffffffffffffffffffffffffffffffffff82141561449b5761449a6144e1565b5b600182019050919050565b6000819050919050565b60006144bb826143a1565b91506144c6836143a1565b9250826144d6576144d5614510565b5b828206905092915050565b7f4e487b7100000000000000000000000000000000000000000000000000000000600052601160045260246000fd5b7f4e487b7100000000000000000000000000000000000000000000000000000000600052601260045260246000fd5b7f4e487b7100000000000000000000000000000000000000000000000000000000600052602260045260246000fd5b7f4e487b7100000000000000000000000000000000000000000000000000000000600052604160045260246000fd5b6000601f19601f8301169050919050565b60008160011c9050919050565b7f26746f70547970653d0000000000000000000000000000000000000000000000600082015250565b7f2666616369616c48616972436f6c6f723d000000000000000000000000000000600082015250565b7f455243373231456e756d657261626c653a206f776e657220696e646578206f7560008201527f74206f6620626f756e6473000000000000000000000000000000000000000000602082015250565b7f4552433732313a207472616e7366657220746f206e6f6e20455243373231526560008201527f63656976657220696d706c656d656e7465720000000000000000000000000000602082015250565b7f4552433732313a207472616e736665722066726f6d20696e636f72726563742060008201527f6f776e6572000000000000000000000000000000000000000000000000000000602082015250565b7f4552433732313a20746f6b656e20616c7265616479206d696e74656400000000600082015250565b7f26686174436f6c6f723d00000000000000000000000000000000000000000000600082015250565b7f26636c6f746865547970653d0000000000000000000000000000000000000000600082015250565b7f4552433732313a207472616e7366657220746f20746865207a65726f2061646460008201527f7265737300000000000000000000000000000000000000000000000000000000602082015250565b7f4552433732313a20617070726f766520746f2063616c6c657200000000000000600082015250565b7f2668616972436f6c6f723d000000000000000000000000000000000000000000600082015250565b7f26636c6f746865436f6c6f723d00000000000000000000000000000000000000600082015250565b7f26736b696e436f6c6f723d000000000000000000000000000000000000000000600082015250565b7f3f00000000000000000000000000000000000000000000000000000000000000600082015250565b7f7b20226e616d65223a2022506c61747a6950756e6b7320230000000000000000600082015250565b7f4552433732313a2061646472657373207a65726f206973206e6f74206120766160008201527f6c6964206f776e65720000000000000000000000000000000000000000000000602082015250565b7f266d6f757468547970653d000000000000000000000000000000000000000000600082015250565b7f227d000000000000000000000000000000000000000000000000000000000000600082015250565b7f4552433732313a20617070726f76652063616c6c6572206973206e6f7420746f60008201527f6b656e206f776e6572206e6f7220617070726f76656420666f7220616c6c0000602082015250565b7f4552433732313a206d696e7420746f20746865207a65726f2061646472657373600082015250565b7f4e6f20506c61747a6950756e6b73206c656674203a2800000000000000000000600082015250565b7f222c20226465736372697074696f6e223a2022506c61747a692050756e6b732060008201527f6172652072616e646f6d697a6564204176617461616172732073746f7265642060208201527f6f6e20636861696e20746f207465616368204441707020646576656c6f706d6560408201527f6e74206f6e20506c61747a69222c2022696d616765223a202200000000000000606082015250565b7f2667726170686963547970653d00000000000000000000000000000000000000600082015250565b7f26657965547970653d0000000000000000000000000000000000000000000000600082015250565b7f4552433732313a20696e76616c696420746f6b656e2049440000000000000000600082015250565b7f4552433732313a20617070726f76616c20746f2063757272656e74206f776e6560008201527f7200000000000000000000000000000000000000000000000000000000000000602082015250565b7f2665796562726f77547970653d00000000000000000000000000000000000000600082015250565b7f6163636573736f72696573547970653d00000000000000000000000000000000600082015250565b7f646174613a6170706c69636174696f6e2f6a736f6e3b6261736536342c000000600082015250565b7f455243373231456e756d657261626c653a20676c6f62616c20696e646578206f60008201527f7574206f6620626f756e64730000000000000000000000000000000000000000602082015250565b7f2666616369616c48616972547970653d00000000000000000000000000000000600082015250565b7f4552433732313a2063616c6c6572206973206e6f7420746f6b656e206f776e6560008201527f72206e6f7220617070726f766564000000000000000000000000000000000000602082015250565b7f455243373231204d657461646174613a2055524920717565727920666f72206e60008201527f6f6e6578697374656e7420746f6b656e00000000000000000000000000000000602082015250565b614cfb81614337565b8114614d0657600080fd5b50565b614d1281614349565b8114614d1d57600080fd5b50565b614d2981614355565b8114614d3457600080fd5b50565b614d40816143a1565b8114614d4b57600080fd5b5056fe4142434445464748494a4b4c4d4e4f505152535455565758595a6162636465666768696a6b6c6d6e6f707172737475767778797a303132333435363738392b2fa264697066735822122021ffee208578436dc70ab17427e50985570a48cd6b77b2f2073660b4b901cfcc64736f6c63430008040033",
  "linkReferences": {},
  "deployedLinkReferences": {}
}